{
  "contractName": "Evidence",
  "abi": [
    {
      "inputs": [],
      "payable": false,
      "stateMutability": "nonpayable",
      "type": "constructor"
    },
    {
      "anonymous": false,
      "inputs": [
        {
          "indexed": false,
          "internalType": "uint256",
          "name": "caseId",
          "type": "uint256"
        },
        {
          "indexed": false,
          "internalType": "uint256",
          "name": "invid",
          "type": "uint256"
        },
        {
          "indexed": false,
          "internalType": "string",
          "name": "cname",
          "type": "string"
        },
        {
          "indexed": false,
          "internalType": "string",
          "name": "cnotes",
          "type": "string"
        },
        {
          "indexed": false,
          "internalType": "string",
          "name": "cdesc",
          "type": "string"
        }
      ],
      "name": "CaseUploaded",
      "type": "event"
    },
    {
      "anonymous": false,
      "inputs": [
        {
          "indexed": false,
          "internalType": "uint256",
          "name": "caseId",
          "type": "uint256"
        },
        {
          "indexed": false,
          "internalType": "uint256",
          "name": "fileId",
          "type": "uint256"
        },
        {
          "indexed": false,
          "internalType": "string",
          "name": "fileHash",
          "type": "string"
        },
        {
          "indexed": false,
          "internalType": "uint256",
          "name": "fileSize",
          "type": "uint256"
        },
        {
          "indexed": false,
          "internalType": "string",
          "name": "fileType",
          "type": "string"
        },
        {
          "indexed": false,
          "internalType": "string",
          "name": "fileName",
          "type": "string"
        },
        {
          "indexed": false,
          "internalType": "string",
          "name": "uploadTime",
          "type": "string"
        },
        {
          "indexed": false,
          "internalType": "address payable",
          "name": "uploader",
          "type": "address"
        }
      ],
      "name": "FileUploaded",
      "type": "event"
    },
    {
      "constant": true,
      "inputs": [
        {
          "internalType": "uint256",
          "name": "",
          "type": "uint256"
        },
        {
          "internalType": "uint256",
          "name": "",
          "type": "uint256"
        }
      ],
      "name": "caseFiles",
      "outputs": [
        {
          "internalType": "uint256",
          "name": "fileId",
          "type": "uint256"
        },
        {
          "internalType": "string",
          "name": "name",
          "type": "string"
        },
        {
          "internalType": "uint256",
          "name": "size",
          "type": "uint256"
        },
        {
          "internalType": "string",
          "name": "fileType",
          "type": "string"
        },
        {
          "internalType": "string",
          "name": "ipfsPath",
          "type": "string"
        },
        {
          "internalType": "string",
          "name": "uploadTime",
          "type": "string"
        },
        {
          "internalType": "address payable",
          "name": "uploader",
          "type": "address"
        }
      ],
      "payable": false,
      "stateMutability": "view",
      "type": "function"
    },
    {
      "constant": true,
      "inputs": [
        {
          "internalType": "uint256",
          "name": "",
          "type": "uint256"
        }
      ],
      "name": "cases",
      "outputs": [
        {
          "internalType": "uint256",
          "name": "caseId",
          "type": "uint256"
        },
        {
          "internalType": "uint256",
          "name": "invid",
          "type": "uint256"
        },
        {
          "internalType": "string",
          "name": "cname",
          "type": "string"
        },
        {
          "internalType": "string",
          "name": "cnotes",
          "type": "string"
        },
        {
          "internalType": "string",
          "name": "cdesc",
          "type": "string"
        }
      ],
      "payable": false,
      "stateMutability": "view",
      "type": "function"
    },
    {
      "constant": true,
      "inputs": [],
      "name": "name",
      "outputs": [
        {
          "internalType": "string",
          "name": "",
          "type": "string"
        }
      ],
      "payable": false,
      "stateMutability": "view",
      "type": "function"
    },
    {
      "constant": false,
      "inputs": [
        {
          "internalType": "uint256",
          "name": "_caseId",
          "type": "uint256"
        },
        {
          "internalType": "uint256",
          "name": "_invid",
          "type": "uint256"
        },
        {
          "internalType": "string",
          "name": "_cname",
          "type": "string"
        },
        {
          "internalType": "string",
          "name": "_cnotes",
          "type": "string"
        },
        {
          "internalType": "string",
          "name": "_cdesc",
          "type": "string"
        },
        {
          "internalType": "string[]",
          "name": "_fileNames",
          "type": "string[]"
        },
        {
          "internalType": "uint256[]",
          "name": "_fileSizes",
          "type": "uint256[]"
        },
        {
          "internalType": "string[]",
          "name": "_fileTypes",
          "type": "string[]"
        },
        {
          "internalType": "string[]",
          "name": "_ipfsPaths",
          "type": "string[]"
        },
        {
          "internalType": "string[]",
          "name": "_uploadTimes",
          "type": "string[]"
        }
      ],
      "name": "uploadCaseWithFiles",
      "outputs": [],
      "payable": false,
      "stateMutability": "nonpayable",
      "type": "function"
    },
    {
      "constant": true,
      "inputs": [
        {
          "internalType": "uint256",
          "name": "_caseId",
          "type": "uint256"
        },
        {
          "internalType": "uint256",
          "name": "_fileId",
          "type": "uint256"
        }
      ],
      "name": "getFile",
      "outputs": [
        {
          "components": [
            {
              "internalType": "uint256",
              "name": "fileId",
              "type": "uint256"
            },
            {
              "internalType": "string",
              "name": "name",
              "type": "string"
            },
            {
              "internalType": "uint256",
              "name": "size",
              "type": "uint256"
            },
            {
              "internalType": "string",
              "name": "fileType",
              "type": "string"
            },
            {
              "internalType": "string",
              "name": "ipfsPath",
              "type": "string"
            },
            {
              "internalType": "string",
              "name": "uploadTime",
              "type": "string"
            },
            {
              "internalType": "address payable",
              "name": "uploader",
              "type": "address"
            }
          ],
          "internalType": "struct Evidence.File",
          "name": "",
          "type": "tuple"
        }
      ],
      "payable": false,
      "stateMutability": "view",
      "type": "function"
    }
  ],
  "bytecode": "0x60806040526040518060400160405280600881526020017f45766964656e6365000000000000000000000000000000000000000000000000815250600090805190602001906200005192919062000066565b503480156200005f57600080fd5b5062000115565b828054600181600116156101000203166002900490600052602060002090601f016020900481019282601f10620000a957805160ff1916838001178555620000da565b82800160010185558215620000da579182015b82811115620000d9578251825591602001919060010190620000bc565b5b509050620000e99190620000ed565b5090565b6200011291905b808211156200010e576000816000905550600101620000f4565b5090565b90565b611a7f80620001256000396000f3fe608060405234801561001057600080fd5b50600436106100575760003560e01c806306fdde031461005c57806330d114711461007a57806383b7655214610096578063a0e41a77146100cc578063f09790dd146100fc575b600080fd5b610064610130565b60405161007191906115d0565b60405180910390f35b610094600480360361008f919081019061119d565b6101ce565b005b6100b060048036036100ab9190810190611161565b61065f565b6040516100c39796959493929190611694565b60405180910390f35b6100e660048036036100e19190810190611161565b61092e565b6040516100f39190611672565b60405180910390f35b61011660048036036101119190810190611138565b610c5f565b604051610127959493929190611787565b60405180910390f35b60008054600181600116156101000203166002900480601f0160208091040260200160405190810160405280929190818152602001828054600181600116156101000203166002900480156101c65780601f1061019b576101008083540402835291602001916101c6565b820191906000526020600020905b8154815290600101906020018083116101a957829003601f168201915b505050505081565b6000600160008c81526020019081526020016000206000015414610227576040517f08c379a000000000000000000000000000000000000000000000000000000000815260040161021e906115f2565b60405180910390fd5b6000891161026a576040517f08c379a000000000000000000000000000000000000000000000000000000000815260040161026190611652565b60405180910390fd5b60008851116102ae576040517f08c379a00000000000000000000000000000000000000000000000000000000081526004016102a590611612565b60405180910390fd5b60008651116102f2576040517f08c379a00000000000000000000000000000000000000000000000000000000081526004016102e990611632565b60405180910390fd5b6102fa610e5d565b8a8160000181815250508981602001818152505088816040018190525087816060018190525086816080018190525080600160008d81526020019081526020016000206000820151816000015560208201518160010155604082015181600201908051906020019061036d929190610e8c565b50606082015181600301908051906020019061038a929190610e8c565b5060808201518160040190805190602001906103a7929190610e8c565b5090505060008090505b86518110156106125760006001820190506040518060e001604052808281526020018984815181106103df57fe5b602002602001015181526020018884815181106103f857fe5b6020026020010151815260200187848151811061041157fe5b6020026020010151815260200186848151811061042a57fe5b6020026020010151815260200185848151811061044357fe5b602002602001015181526020013373ffffffffffffffffffffffffffffffffffffffff16815250600260008f815260200190815260200160002060008381526020019081526020016000206000820151816000015560208201518160010190805190602001906104b4929190610e8c565b506040820151816002015560608201518160030190805190602001906104db929190610e8c565b5060808201518160040190805190602001906104f8929190610e8c565b5060a0820151816005019080519060200190610515929190610e8c565b5060c08201518160060160006101000a81548173ffffffffffffffffffffffffffffffffffffffff021916908373ffffffffffffffffffffffffffffffffffffffff1602179055509050507f821707fe3f9bb3cc5f08ff7034e424638345a2325a4ec6d0b0f32b4891d0992d8d8287858151811061058f57fe5b60200260200101518a86815181106105a357fe5b60200260200101518a87815181106105b757fe5b60200260200101518d88815181106105cb57fe5b60200260200101518a89815181106105df57fe5b6020026020010151336040516105fc9897969594939291906117ef565b60405180910390a15080806001019150506103b1565b507f2adb7b04b50da14b5f14f10abf28e1661d6cc066322e69d66335c1bed1fdfdbe8b8b8b8b8b60405161064a95949392919061171f565b60405180910390a15050505050505050505050565b600260205281600052604060002060205280600052604060002060009150915050806000015490806001018054600181600116156101000203166002900480601f01602080910402602001604051908101604052809291908181526020018280546001816001161561010002031660029004801561071e5780601f106106f35761010080835404028352916020019161071e565b820191906000526020600020905b81548152906001019060200180831161070157829003601f168201915b505050505090806002015490806003018054600181600116156101000203166002900480601f0160208091040260200160405190810160405280929190818152602001828054600181600116156101000203166002900480156107c25780601f10610797576101008083540402835291602001916107c2565b820191906000526020600020905b8154815290600101906020018083116107a557829003601f168201915b505050505090806004018054600181600116156101000203166002900480601f0160208091040260200160405190810160405280929190818152602001828054600181600116156101000203166002900480156108605780601f1061083557610100808354040283529160200191610860565b820191906000526020600020905b81548152906001019060200180831161084357829003601f168201915b505050505090806005018054600181600116156101000203166002900480601f0160208091040260200160405190810160405280929190818152602001828054600181600116156101000203166002900480156108fe5780601f106108d3576101008083540402835291602001916108fe565b820191906000526020600020905b8154815290600101906020018083116108e157829003601f168201915b5050505050908060060160009054906101000a900473ffffffffffffffffffffffffffffffffffffffff16905087565b610936610f0c565b6002600084815260200190815260200160002060008381526020019081526020016000206040518060e001604052908160008201548152602001600182018054600181600116156101000203166002900480601f016020809104026020016040519081016040528092919081815260200182805460018160011615610100020316600290048015610a085780601f106109dd57610100808354040283529160200191610a08565b820191906000526020600020905b8154815290600101906020018083116109eb57829003601f168201915b5050505050815260200160028201548152602001600382018054600181600116156101000203166002900480601f016020809104026020016040519081016040528092919081815260200182805460018160011615610100020316600290048015610ab45780601f10610a8957610100808354040283529160200191610ab4565b820191906000526020600020905b815481529060010190602001808311610a9757829003601f168201915b50505050508152602001600482018054600181600116156101000203166002900480601f016020809104026020016040519081016040528092919081815260200182805460018160011615610100020316600290048015610b565780601f10610b2b57610100808354040283529160200191610b56565b820191906000526020600020905b815481529060010190602001808311610b3957829003601f168201915b50505050508152602001600582018054600181600116156101000203166002900480601f016020809104026020016040519081016040528092919081815260200182805460018160011615610100020316600290048015610bf85780601f10610bcd57610100808354040283529160200191610bf8565b820191906000526020600020905b815481529060010190602001808311610bdb57829003601f168201915b505050505081526020016006820160009054906101000a900473ffffffffffffffffffffffffffffffffffffffff1673ffffffffffffffffffffffffffffffffffffffff1673ffffffffffffffffffffffffffffffffffffffff1681525050905092915050565b6001602052806000526040600020600091509050806000015490806001015490806002018054600181600116156101000203166002900480601f016020809104026020016040519081016040528092919081815260200182805460018160011615610100020316600290048015610d175780601f10610cec57610100808354040283529160200191610d17565b820191906000526020600020905b815481529060010190602001808311610cfa57829003601f168201915b505050505090806003018054600181600116156101000203166002900480601f016020809104026020016040519081016040528092919081815260200182805460018160011615610100020316600290048015610db55780601f10610d8a57610100808354040283529160200191610db5565b820191906000526020600020905b815481529060010190602001808311610d9857829003601f168201915b505050505090806004018054600181600116156101000203166002900480601f016020809104026020016040519081016040528092919081815260200182805460018160011615610100020316600290048015610e535780601f10610e2857610100808354040283529160200191610e53565b820191906000526020600020905b815481529060010190602001808311610e3657829003601f168201915b5050505050905085565b6040518060a0016040528060008152602001600081526020016060815260200160608152602001606081525090565b828054600181600116156101000203166002900490600052602060002090601f016020900481019282601f10610ecd57805160ff1916838001178555610efb565b82800160010185558215610efb579182015b82811115610efa578251825591602001919060010190610edf565b5b509050610f089190610f5f565b5090565b6040518060e00160405280600081526020016060815260200160008152602001606081526020016060815260200160608152602001600073ffffffffffffffffffffffffffffffffffffffff1681525090565b610f8191905b80821115610f7d576000816000905550600101610f65565b5090565b90565b600082601f830112610f9557600080fd5b8135610fa8610fa3826118b6565b611889565b9150818183526020840193506020810190508360005b83811015610fee5781358601610fd4888261107b565b845260208401935060208301925050600181019050610fbe565b5050505092915050565b600082601f83011261100957600080fd5b813561101c611017826118de565b611889565b9150818183526020840193506020810190508385602084028201111561104157600080fd5b60005b8381101561107157816110578882611123565b845260208401935060208301925050600181019050611044565b5050505092915050565b600082601f83011261108c57600080fd5b813561109f61109a82611906565b611889565b915080825260208301602083018583830111156110bb57600080fd5b6110c68382846119d2565b50505092915050565b600082601f8301126110e057600080fd5b81356110f36110ee82611932565b611889565b9150808252602083016020830185838301111561110f57600080fd5b61111a8382846119d2565b50505092915050565b60008135905061113281611a25565b92915050565b60006020828403121561114a57600080fd5b600061115884828501611123565b91505092915050565b6000806040838503121561117457600080fd5b600061118285828601611123565b925050602061119385828601611123565b9150509250929050565b6000806000806000806000806000806101408b8d0312156111bd57600080fd5b60006111cb8d828e01611123565b9a505060206111dc8d828e01611123565b99505060408b013567ffffffffffffffff8111156111f957600080fd5b6112058d828e016110cf565b98505060608b013567ffffffffffffffff81111561122257600080fd5b61122e8d828e016110cf565b97505060808b013567ffffffffffffffff81111561124b57600080fd5b6112578d828e016110cf565b96505060a08b013567ffffffffffffffff81111561127457600080fd5b6112808d828e01610f84565b95505060c08b013567ffffffffffffffff81111561129d57600080fd5b6112a98d828e01610ff8565b94505060e08b013567ffffffffffffffff8111156112c657600080fd5b6112d28d828e01610f84565b9350506101008b013567ffffffffffffffff8111156112f057600080fd5b6112fc8d828e01610f84565b9250506101208b013567ffffffffffffffff81111561131a57600080fd5b6113268d828e01610f84565b9150509295989b9194979a5092959850565b61134181611996565b82525050565b61135081611996565b82525050565b600061136182611969565b61136b8185611985565b935061137b8185602086016119e1565b61138481611a14565b840191505092915050565b600061139a8261195e565b6113a48185611974565b93506113b48185602086016119e1565b6113bd81611a14565b840191505092915050565b60006113d38261195e565b6113dd8185611985565b93506113ed8185602086016119e1565b6113f681611a14565b840191505092915050565b600061140e601683611985565b91507f4361736520494420616c726561647920657869737473000000000000000000006000830152602082019050919050565b600061144e601583611985565b91507f43617365206e616d6520697320726571756972656400000000000000000000006000830152602082019050919050565b600061148e601c83611985565b91507f43617365206465736372697074696f6e206973207265717569726564000000006000830152602082019050919050565b60006114ce601783611985565b91507f496e76616c696420696e76657374696761746f722049440000000000000000006000830152602082019050919050565b600060e08301600083015161151960008601826115b2565b5060208301518482036020860152611531828261138f565b915050604083015161154660408601826115b2565b506060830151848203606086015261155e828261138f565b91505060808301518482036080860152611578828261138f565b91505060a083015184820360a0860152611592828261138f565b91505060c08301516115a760c0860182611338565b508091505092915050565b6115bb816119c8565b82525050565b6115ca816119c8565b82525050565b600060208201905081810360008301526115ea81846113c8565b905092915050565b6000602082019050818103600083015261160b81611401565b9050919050565b6000602082019050818103600083015261162b81611441565b9050919050565b6000602082019050818103600083015261164b81611481565b9050919050565b6000602082019050818103600083015261166b816114c1565b9050919050565b6000602082019050818103600083015261168c8184611501565b905092915050565b600060e0820190506116a9600083018a6115c1565b81810360208301526116bb81896113c8565b90506116ca60408301886115c1565b81810360608301526116dc81876113c8565b905081810360808301526116f081866113c8565b905081810360a083015261170481856113c8565b905061171360c0830184611347565b98975050505050505050565b600060a08201905061173460008301886115c1565b61174160208301876115c1565b81810360408301526117538186611356565b905081810360608301526117678185611356565b9050818103608083015261177b8184611356565b90509695505050505050565b600060a08201905061179c60008301886115c1565b6117a960208301876115c1565b81810360408301526117bb81866113c8565b905081810360608301526117cf81856113c8565b905081810360808301526117e381846113c8565b90509695505050505050565b600061010082019050611805600083018b6115c1565b611812602083018a6115c1565b818103604083015261182481896113c8565b905061183360608301886115c1565b818103608083015261184581876113c8565b905081810360a083015261185981866113c8565b905081810360c083015261186d81856113c8565b905061187c60e0830184611347565b9998505050505050505050565b6000604051905081810181811067ffffffffffffffff821117156118ac57600080fd5b8060405250919050565b600067ffffffffffffffff8211156118cd57600080fd5b602082029050602081019050919050565b600067ffffffffffffffff8211156118f557600080fd5b602082029050602081019050919050565b600067ffffffffffffffff82111561191d57600080fd5b601f19601f8301169050602081019050919050565b600067ffffffffffffffff82111561194957600080fd5b601f19601f8301169050602081019050919050565b600081519050919050565b600081519050919050565b600082825260208201905092915050565b600082825260208201905092915050565b60006119a1826119a8565b9050919050565b600073ffffffffffffffffffffffffffffffffffffffff82169050919050565b6000819050919050565b82818337600083830152505050565b60005b838110156119ff5780820151818401526020810190506119e4565b83811115611a0e576000848401525b50505050565b6000601f19601f8301169050919050565b611a2e816119c8565b8114611a3957600080fd5b5056fea365627a7a72315820fb8bddb57ba465f9171aa7e6559392c0c569134aca85c1919260f38f52cbd9726c6578706572696d656e74616cf564736f6c63430005100040",
  "source": "pragma solidity ^0.5.16;\r\n\r\npragma experimental ABIEncoderV2;\r\n\r\ncontract Evidence {\r\n  string public name = 'Evidence';\r\n\r\n  mapping(uint => Case) public cases;\r\n  mapping(uint => mapping(uint => File)) public caseFiles;\r\n\r\n  struct Case {\r\n    uint caseId;\r\n    uint invid;\r\n    string cname;\r\n    string cnotes;\r\n    string cdesc;\r\n  }\r\n\r\n  struct File {\r\n    uint fileId;\r\n    string name;\r\n    uint256 size;\r\n    string fileType;\r\n    string ipfsPath;\r\n    string uploadTime;\r\n    address payable uploader;\r\n  }\r\n\r\n  event CaseUploaded(\r\n    uint caseId,\r\n    uint invid,\r\n    string cname,\r\n    string cnotes,\r\n    string cdesc\r\n  );\r\n\r\n  event FileUploaded(\r\n    uint caseId,\r\n    uint fileId,\r\n    string fileHash,\r\n    uint256 fileSize,\r\n    string fileType,\r\n    string fileName,\r\n    string uploadTime,\r\n    address payable uploader\r\n  );\r\n\r\n  constructor() public {\r\n  }\r\n\r\n  function uploadCaseWithFiles(\r\n    uint _caseId,\r\n    uint _invid,\r\n    string memory _cname,\r\n    string memory _cnotes,\r\n    string memory _cdesc,\r\n    string[] memory _fileNames,\r\n    uint256[] memory _fileSizes,\r\n    string[] memory _fileTypes,\r\n    string[] memory _ipfsPaths,\r\n    string[] memory _uploadTimes\r\n  )\r\n    public\r\n  {\r\n    // Make sure the case ID is unique\r\n    require(cases[_caseId].caseId == 0, \"Case ID already exists\");\r\n\r\n    // Make sure the investigator ID exists\r\n    require(_invid > 0, \"Invalid investigator ID\");\r\n\r\n    // Make sure case name exists\r\n    require(bytes(_cname).length > 0, \"Case name is required\");\r\n\r\n    // Make sure case description exists\r\n    require(bytes(_cdesc).length > 0, \"Case description is required\");\r\n\r\n    // Create a new Case instance\r\n    Case memory newCase;\r\n    newCase.caseId = _caseId;\r\n    newCase.invid = _invid;\r\n    newCase.cname = _cname;\r\n    newCase.cnotes = _cnotes;\r\n    newCase.cdesc = _cdesc;\r\n\r\n    // Add Case to the contract\r\n    cases[_caseId] = newCase;\r\n\r\n    // Upload files to the Case\r\n    for (uint i = 0; i < _fileNames.length; i++) {\r\n      uint fileId = i + 1;\r\n      caseFiles[_caseId][fileId] = File(\r\n        fileId,\r\n        _fileNames[i],\r\n        _fileSizes[i],\r\n        _fileTypes[i],\r\n        _ipfsPaths[i],\r\n        _uploadTimes[i],\r\n        msg.sender\r\n      );\r\n\r\n      // Trigger an event for each file uploaded\r\n      emit FileUploaded(\r\n        _caseId,\r\n        fileId,\r\n        _ipfsPaths[i],\r\n        _fileSizes[i],\r\n        _fileTypes[i],\r\n        _fileNames[i],\r\n        _uploadTimes[i],\r\n        msg.sender\r\n      );\r\n    }\r\n\r\n    // Trigger an event for the case uploaded\r\n    emit CaseUploaded(_caseId, _invid, _cname, _cnotes, _cdesc);\r\n  }\r\n\r\n  function getFile(uint _caseId, uint _fileId) public view returns (File memory) {\r\n    return caseFiles[_caseId][_fileId];\r\n  }\r\n}\r\n",
  "sourcePath": "D:\\Projects\\MINI_PROJ_2\\EPS\\frontend\\src\\contracts\\Evidence.sol",
  "compiler": {
    "name": "solc",
    "version": "0.5.16+commit.9c3226ce.Emscripten.clang"
  },
  "schemaVersion": "3.4.14",
  "updatedAt": "2023-06-04T16:27:45.309Z",
  "networkType": "ethereum",
  "devdoc": {
    "methods": {}
  },
  "userdoc": {
    "methods": {}
  }
}